{
  "contractName": "DinoNFT",
  "abi": [
    {
      "inputs": [
        {
          "internalType": "string",
          "name": "_name",
          "type": "string"
        },
        {
          "internalType": "string",
          "name": "_symbol",
          "type": "string"
        }
      ],
      "stateMutability": "nonpayable",
      "type": "constructor"
    },
    {
      "inputs": [
        {
          "internalType": "address",
          "name": "sender",
          "type": "address"
        },
        {
          "internalType": "uint256",
          "name": "tokenId",
          "type": "uint256"
        },
        {
          "internalType": "address",
          "name": "owner",
          "type": "address"
        }
      ],
      "name": "ERC721IncorrectOwner",
      "type": "error"
    },
    {
      "inputs": [
        {
          "internalType": "address",
          "name": "operator",
          "type": "address"
        },
        {
          "internalType": "uint256",
          "name": "tokenId",
          "type": "uint256"
        }
      ],
      "name": "ERC721InsufficientApproval",
      "type": "error"
    },
    {
      "inputs": [
        {
          "internalType": "address",
          "name": "approver",
          "type": "address"
        }
      ],
      "name": "ERC721InvalidApprover",
      "type": "error"
    },
    {
      "inputs": [
        {
          "internalType": "address",
          "name": "operator",
          "type": "address"
        }
      ],
      "name": "ERC721InvalidOperator",
      "type": "error"
    },
    {
      "inputs": [
        {
          "internalType": "address",
          "name": "owner",
          "type": "address"
        }
      ],
      "name": "ERC721InvalidOwner",
      "type": "error"
    },
    {
      "inputs": [
        {
          "internalType": "address",
          "name": "receiver",
          "type": "address"
        }
      ],
      "name": "ERC721InvalidReceiver",
      "type": "error"
    },
    {
      "inputs": [
        {
          "internalType": "address",
          "name": "sender",
          "type": "address"
        }
      ],
      "name": "ERC721InvalidSender",
      "type": "error"
    },
    {
      "inputs": [
        {
          "internalType": "uint256",
          "name": "tokenId",
          "type": "uint256"
        }
      ],
      "name": "ERC721NonexistentToken",
      "type": "error"
    },
    {
      "anonymous": false,
      "inputs": [
        {
          "indexed": true,
          "internalType": "address",
          "name": "owner",
          "type": "address"
        },
        {
          "indexed": true,
          "internalType": "address",
          "name": "approved",
          "type": "address"
        },
        {
          "indexed": true,
          "internalType": "uint256",
          "name": "tokenId",
          "type": "uint256"
        }
      ],
      "name": "Approval",
      "type": "event"
    },
    {
      "anonymous": false,
      "inputs": [
        {
          "indexed": true,
          "internalType": "address",
          "name": "owner",
          "type": "address"
        },
        {
          "indexed": true,
          "internalType": "address",
          "name": "operator",
          "type": "address"
        },
        {
          "indexed": false,
          "internalType": "bool",
          "name": "approved",
          "type": "bool"
        }
      ],
      "name": "ApprovalForAll",
      "type": "event"
    },
    {
      "anonymous": false,
      "inputs": [
        {
          "indexed": true,
          "internalType": "address",
          "name": "from",
          "type": "address"
        },
        {
          "indexed": true,
          "internalType": "address",
          "name": "to",
          "type": "address"
        },
        {
          "indexed": true,
          "internalType": "uint256",
          "name": "tokenId",
          "type": "uint256"
        }
      ],
      "name": "Transfer",
      "type": "event"
    },
    {
      "inputs": [
        {
          "internalType": "address",
          "name": "to",
          "type": "address"
        },
        {
          "internalType": "uint256",
          "name": "tokenId",
          "type": "uint256"
        }
      ],
      "name": "approve",
      "outputs": [],
      "stateMutability": "nonpayable",
      "type": "function"
    },
    {
      "inputs": [
        {
          "internalType": "address",
          "name": "owner",
          "type": "address"
        }
      ],
      "name": "balanceOf",
      "outputs": [
        {
          "internalType": "uint256",
          "name": "",
          "type": "uint256"
        }
      ],
      "stateMutability": "view",
      "type": "function"
    },
    {
      "inputs": [
        {
          "internalType": "uint256",
          "name": "tokenId",
          "type": "uint256"
        }
      ],
      "name": "getApproved",
      "outputs": [
        {
          "internalType": "address",
          "name": "",
          "type": "address"
        }
      ],
      "stateMutability": "view",
      "type": "function"
    },
    {
      "inputs": [
        {
          "internalType": "address",
          "name": "owner",
          "type": "address"
        },
        {
          "internalType": "address",
          "name": "operator",
          "type": "address"
        }
      ],
      "name": "isApprovedForAll",
      "outputs": [
        {
          "internalType": "bool",
          "name": "",
          "type": "bool"
        }
      ],
      "stateMutability": "view",
      "type": "function"
    },
    {
      "inputs": [],
      "name": "name",
      "outputs": [
        {
          "internalType": "string",
          "name": "",
          "type": "string"
        }
      ],
      "stateMutability": "view",
      "type": "function"
    },
    {
      "inputs": [],
      "name": "owner",
      "outputs": [
        {
          "internalType": "address",
          "name": "",
          "type": "address"
        }
      ],
      "stateMutability": "view",
      "type": "function"
    },
    {
      "inputs": [
        {
          "internalType": "uint256",
          "name": "tokenId",
          "type": "uint256"
        }
      ],
      "name": "ownerOf",
      "outputs": [
        {
          "internalType": "address",
          "name": "",
          "type": "address"
        }
      ],
      "stateMutability": "view",
      "type": "function"
    },
    {
      "inputs": [
        {
          "internalType": "address",
          "name": "from",
          "type": "address"
        },
        {
          "internalType": "address",
          "name": "to",
          "type": "address"
        },
        {
          "internalType": "uint256",
          "name": "tokenId",
          "type": "uint256"
        }
      ],
      "name": "safeTransferFrom",
      "outputs": [],
      "stateMutability": "nonpayable",
      "type": "function"
    },
    {
      "inputs": [
        {
          "internalType": "address",
          "name": "from",
          "type": "address"
        },
        {
          "internalType": "address",
          "name": "to",
          "type": "address"
        },
        {
          "internalType": "uint256",
          "name": "tokenId",
          "type": "uint256"
        },
        {
          "internalType": "bytes",
          "name": "data",
          "type": "bytes"
        }
      ],
      "name": "safeTransferFrom",
      "outputs": [],
      "stateMutability": "nonpayable",
      "type": "function"
    },
    {
      "inputs": [
        {
          "internalType": "address",
          "name": "operator",
          "type": "address"
        },
        {
          "internalType": "bool",
          "name": "approved",
          "type": "bool"
        }
      ],
      "name": "setApprovalForAll",
      "outputs": [],
      "stateMutability": "nonpayable",
      "type": "function"
    },
    {
      "inputs": [
        {
          "internalType": "bytes4",
          "name": "interfaceId",
          "type": "bytes4"
        }
      ],
      "name": "supportsInterface",
      "outputs": [
        {
          "internalType": "bool",
          "name": "",
          "type": "bool"
        }
      ],
      "stateMutability": "view",
      "type": "function"
    },
    {
      "inputs": [],
      "name": "symbol",
      "outputs": [
        {
          "internalType": "string",
          "name": "",
          "type": "string"
        }
      ],
      "stateMutability": "view",
      "type": "function"
    },
    {
      "inputs": [
        {
          "internalType": "address",
          "name": "from",
          "type": "address"
        },
        {
          "internalType": "address",
          "name": "to",
          "type": "address"
        },
        {
          "internalType": "uint256",
          "name": "tokenId",
          "type": "uint256"
        }
      ],
      "name": "transferFrom",
      "outputs": [],
      "stateMutability": "nonpayable",
      "type": "function"
    },
    {
      "inputs": [],
      "name": "minting",
      "outputs": [],
      "stateMutability": "nonpayable",
      "type": "function"
    },
    {
      "inputs": [
        {
          "internalType": "uint256",
          "name": "tokenId",
          "type": "uint256"
        }
      ],
      "name": "purchase",
      "outputs": [],
      "stateMutability": "payable",
      "type": "function"
    },
    {
      "inputs": [
        {
          "internalType": "uint256",
          "name": "tokenId",
          "type": "uint256"
        }
      ],
      "name": "tokenURI",
      "outputs": [
        {
          "internalType": "string",
          "name": "",
          "type": "string"
        }
      ],
      "stateMutability": "pure",
      "type": "function"
    },
    {
      "inputs": [],
      "name": "totalSupply",
      "outputs": [
        {
          "internalType": "uint256",
          "name": "",
          "type": "uint256"
        }
      ],
      "stateMutability": "view",
      "type": "function"
    },
    {
      "inputs": [],
      "name": "allTokenIds",
      "outputs": [
        {
          "internalType": "uint256[]",
          "name": "",
          "type": "uint256[]"
        }
      ],
      "stateMutability": "view",
      "type": "function"
    }
  ],
  "bytecode": "0x60806040525f60075534801562000014575f80fd5b5060405162002c4e38038062002c4e83398181016040528101906200003a91906200022e565b8181815f90816200004c9190620004e8565b5080600190816200005e9190620004e8565b5050503360065f6101000a81548173ffffffffffffffffffffffffffffffffffffffff021916908373ffffffffffffffffffffffffffffffffffffffff1602179055505050620005cc565b5f604051905090565b5f80fd5b5f80fd5b5f80fd5b5f80fd5b5f601f19601f8301169050919050565b7f4e487b71000000000000000000000000000000000000000000000000000000005f52604160045260245ffd5b6200010a82620000c2565b810181811067ffffffffffffffff821117156200012c576200012b620000d2565b5b80604052505050565b5f62000140620000a9565b90506200014e8282620000ff565b919050565b5f67ffffffffffffffff82111562000170576200016f620000d2565b5b6200017b82620000c2565b9050602081019050919050565b5f5b83811015620001a75780820151818401526020810190506200018a565b5f8484015250505050565b5f620001c8620001c28462000153565b62000135565b905082815260208101848484011115620001e757620001e6620000be565b5b620001f484828562000188565b509392505050565b5f82601f830112620002135762000212620000ba565b5b815162000225848260208601620001b2565b91505092915050565b5f8060408385031215620002475762000246620000b2565b5b5f83015167ffffffffffffffff811115620002675762000266620000b6565b5b6200027585828601620001fc565b925050602083015167ffffffffffffffff811115620002995762000298620000b6565b5b620002a785828601620001fc565b9150509250929050565b5f81519050919050565b7f4e487b71000000000000000000000000000000000000000000000000000000005f52602260045260245ffd5b5f60028204905060018216806200030057607f821691505b602082108103620003165762000315620002bb565b5b50919050565b5f819050815f5260205f209050919050565b5f6020601f8301049050919050565b5f82821b905092915050565b5f600883026200037a7fffffffffffffffffffffffffffffffffffffffffffffffffffffffffffffffff826200033d565b6200038686836200033d565b95508019841693508086168417925050509392505050565b5f819050919050565b5f819050919050565b5f620003d0620003ca620003c4846200039e565b620003a7565b6200039e565b9050919050565b5f819050919050565b620003eb83620003b0565b62000403620003fa82620003d7565b84845462000349565b825550505050565b5f90565b620004196200040b565b62000426818484620003e0565b505050565b5b818110156200044d57620004415f826200040f565b6001810190506200042c565b5050565b601f8211156200049c5762000466816200031c565b62000471846200032e565b8101602085101562000481578190505b6200049962000490856200032e565b8301826200042b565b50505b505050565b5f82821c905092915050565b5f620004be5f1984600802620004a1565b1980831691505092915050565b5f620004d88383620004ad565b9150826002028217905092915050565b620004f382620002b1565b67ffffffffffffffff8111156200050f576200050e620000d2565b5b6200051b8254620002e8565b6200052882828562000451565b5f60209050601f8311600181146200055e575f841562000549578287015190505b620005558582620004cb565b865550620005c4565b601f1984166200056e866200031c565b5f5b82811015620005975784890151825560018201915060208501945060208101905062000570565b86831015620005b75784890151620005b3601f891682620004ad565b8355505b6001600288020188555050505b505050505050565b61267480620005da5f395ff3fe608060405260043610610108575f3560e01c80637dc2268c11610094578063b88d4fde11610063578063b88d4fde1461035a578063c87b56dd14610382578063e7619fad146103be578063e985e9c5146103e8578063efef39a11461042457610108565b80637dc2268c146102c85780638da5cb5b146102de57806395d89b4114610308578063a22cb4651461033257610108565b806318160ddd116100db57806318160ddd146101d657806323b872dd1461020057806342842e0e146102285780636352211e1461025057806370a082311461028c57610108565b806301ffc9a71461010c57806306fdde0314610148578063081812fc14610172578063095ea7b3146101ae575b5f80fd5b348015610117575f80fd5b50610132600480360381019061012d9190611b91565b610440565b60405161013f9190611bd6565b60405180910390f35b348015610153575f80fd5b5061015c610521565b6040516101699190611c79565b60405180910390f35b34801561017d575f80fd5b5061019860048036038101906101939190611ccc565b6105b0565b6040516101a59190611d36565b60405180910390f35b3480156101b9575f80fd5b506101d460048036038101906101cf9190611d79565b6105cb565b005b3480156101e1575f80fd5b506101ea6105e1565b6040516101f79190611dc6565b60405180910390f35b34801561020b575f80fd5b5061022660048036038101906102219190611ddf565b6105ea565b005b348015610233575f80fd5b5061024e60048036038101906102499190611ddf565b6106e9565b005b34801561025b575f80fd5b5061027660048036038101906102719190611ccc565b610708565b6040516102839190611d36565b60405180910390f35b348015610297575f80fd5b506102b260048036038101906102ad9190611e2f565b610719565b6040516102bf9190611dc6565b60405180910390f35b3480156102d3575f80fd5b506102dc6107cf565b005b3480156102e9575f80fd5b506102f26108f5565b6040516102ff9190611d36565b60405180910390f35b348015610313575f80fd5b5061031c61091a565b6040516103299190611c79565b60405180910390f35b34801561033d575f80fd5b5061035860048036038101906103539190611e84565b6109aa565b005b348015610365575f80fd5b50610380600480360381019061037b9190611fee565b6109c0565b005b34801561038d575f80fd5b506103a860048036038101906103a39190611ccc565b6109e5565b6040516103b59190611c79565b60405180910390f35b3480156103c9575f80fd5b506103d2610a41565b6040516103df9190612125565b60405180910390f35b3480156103f3575f80fd5b5061040e60048036038101906104099190612145565b610a97565b60405161041b9190611bd6565b60405180910390f35b61043e60048036038101906104399190611ccc565b610b25565b005b5f7f80ac58cd000000000000000000000000000000000000000000000000000000007bffffffffffffffffffffffffffffffffffffffffffffffffffffffff1916827bffffffffffffffffffffffffffffffffffffffffffffffffffffffff1916148061050a57507f5b5e139f000000000000000000000000000000000000000000000000000000007bffffffffffffffffffffffffffffffffffffffffffffffffffffffff1916827bffffffffffffffffffffffffffffffffffffffffffffffffffffffff1916145b8061051a575061051982610cc3565b5b9050919050565b60605f805461052f906121b0565b80601f016020809104026020016040519081016040528092919081815260200182805461055b906121b0565b80156105a65780601f1061057d576101008083540402835291602001916105a6565b820191905f5260205f20905b81548152906001019060200180831161058957829003601f168201915b5050505050905090565b5f6105ba82610d2c565b506105c482610db2565b9050919050565b6105dd82826105d8610deb565b610df2565b5050565b5f600754905090565b5f73ffffffffffffffffffffffffffffffffffffffff168273ffffffffffffffffffffffffffffffffffffffff160361065a575f6040517f64a0ae920000000000000000000000000000000000000000000000000000000081526004016106519190611d36565b60405180910390fd5b5f61066d8383610668610deb565b610e04565b90508373ffffffffffffffffffffffffffffffffffffffff168173ffffffffffffffffffffffffffffffffffffffff16146106e3578382826040517f64283d7b0000000000000000000000000000000000000000000000000000000081526004016106da939291906121e0565b60405180910390fd5b50505050565b61070383838360405180602001604052805f8152506109c0565b505050565b5f61071282610d2c565b9050919050565b5f8073ffffffffffffffffffffffffffffffffffffffff168273ffffffffffffffffffffffffffffffffffffffff160361078a575f6040517f89c62b640000000000000000000000000000000000000000000000000000000081526004016107819190611d36565b60405180910390fd5b60035f8373ffffffffffffffffffffffffffffffffffffffff1673ffffffffffffffffffffffffffffffffffffffff1681526020019081526020015f20549050919050565b60065f9054906101000a900473ffffffffffffffffffffffffffffffffffffffff1673ffffffffffffffffffffffffffffffffffffffff163373ffffffffffffffffffffffffffffffffffffffff161461085e576040517f08c379a00000000000000000000000000000000000000000000000000000000081526004016108559061225f565b60405180910390fd5b6004600754106108a3576040517f08c379a000000000000000000000000000000000000000000000000000000000815260040161089a906122c7565b60405180910390fd5b5f60075490506108b3338261100f565b600881908060018154018082558091505060019003905f5260205f20015f9091909190915055600160075f8282546108eb9190612312565b9250508190555050565b60065f9054906101000a900473ffffffffffffffffffffffffffffffffffffffff1681565b606060018054610929906121b0565b80601f0160208091040260200160405190810160405280929190818152602001828054610955906121b0565b80156109a05780601f10610977576101008083540402835291602001916109a0565b820191905f5260205f20905b81548152906001019060200180831161098357829003601f168201915b5050505050905090565b6109bc6109b5610deb565b8383611102565b5050565b6109cb8484846105ea565b6109df6109d6610deb565b8585858561126b565b50505050565b60605f6109f0611417565b90505f815111610a0e5760405180602001604052805f815250610a39565b80610a188461142d565b604051602001610a299291906123a5565b6040516020818303038152906040525b915050919050565b60606008805480602002602001604051908101604052809291908181526020018280548015610a8d57602002820191905f5260205f20905b815481526020019060010190808311610a79575b5050505050905090565b5f60055f8473ffffffffffffffffffffffffffffffffffffffff1673ffffffffffffffffffffffffffffffffffffffff1681526020019081526020015f205f8373ffffffffffffffffffffffffffffffffffffffff1673ffffffffffffffffffffffffffffffffffffffff1681526020019081526020015f205f9054906101000a900460ff16905092915050565b5f610b2f82610708565b90508073ffffffffffffffffffffffffffffffffffffffff163373ffffffffffffffffffffffffffffffffffffffff1603610b9f576040517f08c379a0000000000000000000000000000000000000000000000000000000008152600401610b9690612421565b60405180910390fd5b3073ffffffffffffffffffffffffffffffffffffffff16610bbf836105b0565b73ffffffffffffffffffffffffffffffffffffffff161480610be75750610be68130610a97565b5b610c26576040517f08c379a0000000000000000000000000000000000000000000000000000000008152600401610c1d90612489565b60405180910390fd5b670de0b6b3a76400003414610c70576040517f08c379a0000000000000000000000000000000000000000000000000000000008152600401610c67906124f1565b60405180910390fd5b8073ffffffffffffffffffffffffffffffffffffffff166108fc3490811502906040515f60405180830381858888f19350505050158015610cb3573d5f803e3d5ffd5b50610cbf8133846114f7565b5050565b5f7f01ffc9a7000000000000000000000000000000000000000000000000000000007bffffffffffffffffffffffffffffffffffffffffffffffffffffffff1916827bffffffffffffffffffffffffffffffffffffffffffffffffffffffff1916149050919050565b5f80610d378361165f565b90505f73ffffffffffffffffffffffffffffffffffffffff168173ffffffffffffffffffffffffffffffffffffffff1603610da957826040517f7e273289000000000000000000000000000000000000000000000000000000008152600401610da09190611dc6565b60405180910390fd5b80915050919050565b5f60045f8381526020019081526020015f205f9054906101000a900473ffffffffffffffffffffffffffffffffffffffff169050919050565b5f33905090565b610dff8383836001611698565b505050565b5f80610e0f8461165f565b90505f73ffffffffffffffffffffffffffffffffffffffff168373ffffffffffffffffffffffffffffffffffffffff1614610e5057610e4f818486611857565b5b5f73ffffffffffffffffffffffffffffffffffffffff168173ffffffffffffffffffffffffffffffffffffffff1614610edb57610e8f5f855f80611698565b600160035f8373ffffffffffffffffffffffffffffffffffffffff1673ffffffffffffffffffffffffffffffffffffffff1681526020019081526020015f205f82825403925050819055505b5f73ffffffffffffffffffffffffffffffffffffffff168573ffffffffffffffffffffffffffffffffffffffff1614610f5a57600160035f8773ffffffffffffffffffffffffffffffffffffffff1673ffffffffffffffffffffffffffffffffffffffff1681526020019081526020015f205f82825401925050819055505b8460025f8681526020019081526020015f205f6101000a81548173ffffffffffffffffffffffffffffffffffffffff021916908373ffffffffffffffffffffffffffffffffffffffff160217905550838573ffffffffffffffffffffffffffffffffffffffff168273ffffffffffffffffffffffffffffffffffffffff167fddf252ad1be2c89b69c2b068fc378daa952ba7f163c4a11628f55a4df523b3ef60405160405180910390a4809150509392505050565b5f73ffffffffffffffffffffffffffffffffffffffff168273ffffffffffffffffffffffffffffffffffffffff160361107f575f6040517f64a0ae920000000000000000000000000000000000000000000000000000000081526004016110769190611d36565b60405180910390fd5b5f61108b83835f610e04565b90505f73ffffffffffffffffffffffffffffffffffffffff168173ffffffffffffffffffffffffffffffffffffffff16146110fd575f6040517f73c6ac6e0000000000000000000000000000000000000000000000000000000081526004016110f49190611d36565b60405180910390fd5b505050565b5f73ffffffffffffffffffffffffffffffffffffffff168273ffffffffffffffffffffffffffffffffffffffff160361117257816040517f5b08ba180000000000000000000000000000000000000000000000000000000081526004016111699190611d36565b60405180910390fd5b8060055f8573ffffffffffffffffffffffffffffffffffffffff1673ffffffffffffffffffffffffffffffffffffffff1681526020019081526020015f205f8473ffffffffffffffffffffffffffffffffffffffff1673ffffffffffffffffffffffffffffffffffffffff1681526020019081526020015f205f6101000a81548160ff0219169083151502179055508173ffffffffffffffffffffffffffffffffffffffff168373ffffffffffffffffffffffffffffffffffffffff167f17307eab39ab6107e8899845ad3d59bd9653f200f220920489ca2b5937696c318360405161125e9190611bd6565b60405180910390a3505050565b5f8373ffffffffffffffffffffffffffffffffffffffff163b1115611410578273ffffffffffffffffffffffffffffffffffffffff1663150b7a02868685856040518563ffffffff1660e01b81526004016112c99493929190612561565b6020604051808303815f875af192505050801561130457506040513d601f19601f8201168201806040525081019061130191906125bf565b60015b611385573d805f8114611332576040519150601f19603f3d011682016040523d82523d5f602084013e611337565b606091505b505f81510361137d57836040517f64a0ae920000000000000000000000000000000000000000000000000000000081526004016113749190611d36565b60405180910390fd5b805181602001fd5b63150b7a0260e01b7bffffffffffffffffffffffffffffffffffffffffffffffffffffffff1916817bffffffffffffffffffffffffffffffffffffffffffffffffffffffff19161461140e57836040517f64a0ae920000000000000000000000000000000000000000000000000000000081526004016114059190611d36565b60405180910390fd5b505b5050505050565b606060405180602001604052805f815250905090565b60605f600161143b8461191a565b0190505f8167ffffffffffffffff81111561145957611458611eca565b5b6040519080825280601f01601f19166020018201604052801561148b5781602001600182028036833780820191505090505b5090505f82602001820190505b6001156114ec578080600190039150507f3031323334353637383961626364656600000000000000000000000000000000600a86061a8153600a85816114e1576114e06125ea565b5b0494505f8503611498575b819350505050919050565b5f73ffffffffffffffffffffffffffffffffffffffff168273ffffffffffffffffffffffffffffffffffffffff1603611567575f6040517f64a0ae9200000000000000000000000000000000000000000000000000000000815260040161155e9190611d36565b60405180910390fd5b5f61157383835f610e04565b90505f73ffffffffffffffffffffffffffffffffffffffff168173ffffffffffffffffffffffffffffffffffffffff16036115e557816040517f7e2732890000000000000000000000000000000000000000000000000000000081526004016115dc9190611dc6565b60405180910390fd5b8373ffffffffffffffffffffffffffffffffffffffff168173ffffffffffffffffffffffffffffffffffffffff1614611659578382826040517f64283d7b000000000000000000000000000000000000000000000000000000008152600401611650939291906121e0565b60405180910390fd5b50505050565b5f60025f8381526020019081526020015f205f9054906101000a900473ffffffffffffffffffffffffffffffffffffffff169050919050565b80806116d057505f73ffffffffffffffffffffffffffffffffffffffff168273ffffffffffffffffffffffffffffffffffffffff1614155b15611802575f6116df84610d2c565b90505f73ffffffffffffffffffffffffffffffffffffffff168373ffffffffffffffffffffffffffffffffffffffff161415801561174957508273ffffffffffffffffffffffffffffffffffffffff168173ffffffffffffffffffffffffffffffffffffffff1614155b801561175c575061175a8184610a97565b155b1561179e57826040517fa9fbf51f0000000000000000000000000000000000000000000000000000000081526004016117959190611d36565b60405180910390fd5b811561180057838573ffffffffffffffffffffffffffffffffffffffff168273ffffffffffffffffffffffffffffffffffffffff167f8c5be1e5ebec7d5bd14f71427d1e84f3dd0314c0f7b2291e5b200ac8c7c3b92560405160405180910390a45b505b8360045f8581526020019081526020015f205f6101000a81548173ffffffffffffffffffffffffffffffffffffffff021916908373ffffffffffffffffffffffffffffffffffffffff16021790555050505050565b611862838383611a6b565b611915575f73ffffffffffffffffffffffffffffffffffffffff168373ffffffffffffffffffffffffffffffffffffffff16036118d657806040517f7e2732890000000000000000000000000000000000000000000000000000000081526004016118cd9190611dc6565b60405180910390fd5b81816040517f177e802f00000000000000000000000000000000000000000000000000000000815260040161190c929190612617565b60405180910390fd5b505050565b5f805f90507a184f03e93ff9f4daa797ed6e38ed64bf6a1f0100000000000000008310611976577a184f03e93ff9f4daa797ed6e38ed64bf6a1f010000000000000000838161196c5761196b6125ea565b5b0492506040810190505b6d04ee2d6d415b85acef810000000083106119b3576d04ee2d6d415b85acef810000000083816119a9576119a86125ea565b5b0492506020810190505b662386f26fc1000083106119e257662386f26fc1000083816119d8576119d76125ea565b5b0492506010810190505b6305f5e1008310611a0b576305f5e1008381611a0157611a006125ea565b5b0492506008810190505b6127108310611a30576127108381611a2657611a256125ea565b5b0492506004810190505b60648310611a535760648381611a4957611a486125ea565b5b0492506002810190505b600a8310611a62576001810190505b80915050919050565b5f8073ffffffffffffffffffffffffffffffffffffffff168373ffffffffffffffffffffffffffffffffffffffff1614158015611b2257508273ffffffffffffffffffffffffffffffffffffffff168473ffffffffffffffffffffffffffffffffffffffff161480611ae35750611ae28484610a97565b5b80611b2157508273ffffffffffffffffffffffffffffffffffffffff16611b0983610db2565b73ffffffffffffffffffffffffffffffffffffffff16145b5b90509392505050565b5f604051905090565b5f80fd5b5f80fd5b5f7fffffffff0000000000000000000000000000000000000000000000000000000082169050919050565b611b7081611b3c565b8114611b7a575f80fd5b50565b5f81359050611b8b81611b67565b92915050565b5f60208284031215611ba657611ba5611b34565b5b5f611bb384828501611b7d565b91505092915050565b5f8115159050919050565b611bd081611bbc565b82525050565b5f602082019050611be95f830184611bc7565b92915050565b5f81519050919050565b5f82825260208201905092915050565b5f5b83811015611c26578082015181840152602081019050611c0b565b5f8484015250505050565b5f601f19601f8301169050919050565b5f611c4b82611bef565b611c558185611bf9565b9350611c65818560208601611c09565b611c6e81611c31565b840191505092915050565b5f6020820190508181035f830152611c918184611c41565b905092915050565b5f819050919050565b611cab81611c99565b8114611cb5575f80fd5b50565b5f81359050611cc681611ca2565b92915050565b5f60208284031215611ce157611ce0611b34565b5b5f611cee84828501611cb8565b91505092915050565b5f73ffffffffffffffffffffffffffffffffffffffff82169050919050565b5f611d2082611cf7565b9050919050565b611d3081611d16565b82525050565b5f602082019050611d495f830184611d27565b92915050565b611d5881611d16565b8114611d62575f80fd5b50565b5f81359050611d7381611d4f565b92915050565b5f8060408385031215611d8f57611d8e611b34565b5b5f611d9c85828601611d65565b9250506020611dad85828601611cb8565b9150509250929050565b611dc081611c99565b82525050565b5f602082019050611dd95f830184611db7565b92915050565b5f805f60608486031215611df657611df5611b34565b5b5f611e0386828701611d65565b9350506020611e1486828701611d65565b9250506040611e2586828701611cb8565b9150509250925092565b5f60208284031215611e4457611e43611b34565b5b5f611e5184828501611d65565b91505092915050565b611e6381611bbc565b8114611e6d575f80fd5b50565b5f81359050611e7e81611e5a565b92915050565b5f8060408385031215611e9a57611e99611b34565b5b5f611ea785828601611d65565b9250506020611eb885828601611e70565b9150509250929050565b5f80fd5b5f80fd5b7f4e487b71000000000000000000000000000000000000000000000000000000005f52604160045260245ffd5b611f0082611c31565b810181811067ffffffffffffffff82111715611f1f57611f1e611eca565b5b80604052505050565b5f611f31611b2b565b9050611f3d8282611ef7565b919050565b5f67ffffffffffffffff821115611f5c57611f5b611eca565b5b611f6582611c31565b9050602081019050919050565b828183375f83830152505050565b5f611f92611f8d84611f42565b611f28565b905082815260208101848484011115611fae57611fad611ec6565b5b611fb9848285611f72565b509392505050565b5f82601f830112611fd557611fd4611ec2565b5b8135611fe5848260208601611f80565b91505092915050565b5f805f806080858703121561200657612005611b34565b5b5f61201387828801611d65565b945050602061202487828801611d65565b935050604061203587828801611cb8565b925050606085013567ffffffffffffffff81111561205657612055611b38565b5b61206287828801611fc1565b91505092959194509250565b5f81519050919050565b5f82825260208201905092915050565b5f819050602082019050919050565b6120a081611c99565b82525050565b5f6120b18383612097565b60208301905092915050565b5f602082019050919050565b5f6120d38261206e565b6120dd8185612078565b93506120e883612088565b805f5b838110156121185781516120ff88826120a6565b975061210a836120bd565b9250506001810190506120eb565b5085935050505092915050565b5f6020820190508181035f83015261213d81846120c9565b905092915050565b5f806040838503121561215b5761215a611b34565b5b5f61216885828601611d65565b925050602061217985828601611d65565b9150509250929050565b7f4e487b71000000000000000000000000000000000000000000000000000000005f52602260045260245ffd5b5f60028204905060018216806121c757607f821691505b6020821081036121da576121d9612183565b5b50919050565b5f6060820190506121f35f830186611d27565b6122006020830185611db7565b61220d6040830184611d27565b949350505050565b7f4f6e6c79204f776e6572000000000000000000000000000000000000000000005f82015250565b5f612249600a83611bf9565b915061225482612215565b602082019050919050565b5f6020820190508181035f8301526122768161223d565b9050919050565b7f4d696e74206c696d6974207265616368656400000000000000000000000000005f82015250565b5f6122b1601283611bf9565b91506122bc8261227d565b602082019050919050565b5f6020820190508181035f8301526122de816122a5565b9050919050565b7f4e487b71000000000000000000000000000000000000000000000000000000005f52601160045260245ffd5b5f61231c82611c99565b915061232783611c99565b925082820190508082111561233f5761233e6122e5565b5b92915050565b5f81905092915050565b5f61235982611bef565b6123638185612345565b9350612373818560208601611c09565b80840191505092915050565b7f2e6a736f6e000000000000000000000000000000000000000000000000000000815250565b5f6123b0828561234f565b91506123bc828461234f565b91506123c78261237f565b6005820191508190509392505050565b7f596f752061726520616c7265616479206f776e2074686973204e4654000000005f82015250565b5f61240b601c83611bf9565b9150612416826123d7565b602082019050919050565b5f6020820190508181035f830152612438816123ff565b9050919050565b7f4e6f7420617070726f76656420666f72207472616e73666572000000000000005f82015250565b5f612473601983611bf9565b915061247e8261243f565b602082019050919050565b5f6020820190508181035f8301526124a081612467565b9050919050565b7f496e73756666696369656e74207061796d656e740000000000000000000000005f82015250565b5f6124db601483611bf9565b91506124e6826124a7565b602082019050919050565b5f6020820190508181035f830152612508816124cf565b9050919050565b5f81519050919050565b5f82825260208201905092915050565b5f6125338261250f565b61253d8185612519565b935061254d818560208601611c09565b61255681611c31565b840191505092915050565b5f6080820190506125745f830187611d27565b6125816020830186611d27565b61258e6040830185611db7565b81810360608301526125a08184612529565b905095945050505050565b5f815190506125b981611b67565b92915050565b5f602082840312156125d4576125d3611b34565b5b5f6125e1848285016125ab565b91505092915050565b7f4e487b71000000000000000000000000000000000000000000000000000000005f52601260045260245ffd5b5f60408201905061262a5f830185611d27565b6126376020830184611db7565b939250505056fea26469706673582212205b2ac0e1adfbd9e48f31b903c3b9ac091d23f14d9abaa5d53dd281982eef748264736f6c63430008140033",
  "immutableReferences": {},
  "source": "// SPDX-License-Identifier: MIT\npragma solidity ^0.8.20;\n\nimport \"@openzeppelin/contracts/token/ERC721/ERC721.sol\";\n\ncontract DinoNFT is ERC721 {\n    using Strings for uint256;\n\n    address public owner;\n    uint256 private _totalSupply = 0; //   NFT \n    uint256[] private _allTokenIds; //   NFT tokenID \n\n    constructor(string memory _name, string memory _symbol) ERC721 (_name, _symbol) {\n        owner = msg.sender;\n    } \n\n    // NFT , Only owner,    totalSupply  tokenID  \n    function minting() public {\n        require(msg.sender == owner, \"Only Owner\"); // Only Owner\n        require(_totalSupply < 4, \"Mint limit reached\"); // 4  \n\n        uint256 newTokenId = _totalSupply;\n\n        _mint(msg.sender, newTokenId); // msg.sender(owner) tokenId  \n\n        _allTokenIds.push(newTokenId); //  NFT  \n        _totalSupply += 1; // tokenId    1 \n    }\n\n    // NFT \n    function purchase (uint256 tokenId) public payable {\n        address currentOwner = ownerOf(tokenId); //  NFT \n        require(msg.sender != currentOwner, \"You are already own this NFT\"); //     \n\n        //  NFT     \n        require(getApproved(tokenId) == address(this) || isApprovedForAll(currentOwner, address(this)), \"Not approved for transfer\");\n\n        //   , 1\n        require(msg.value == 1 ether, \"Insufficient payment\");\n\n        //  NFT  pay \n        payable(currentOwner).transfer(msg.value);\n\n        // NFT  currentOwner => msg.sender \n        _transfer(currentOwner, msg.sender, tokenId);\n    }\n\n    // tokenURI\n    function tokenURI(uint256 tokenId) public pure override returns (string memory) {\n        string memory baseURI = _baseURI();\n        return bytes(baseURI).length > 0 ? string.concat(baseURI, tokenId.toString(), \".json\") : \"\";\n    }\n\n    // baseURI, DinoMetaData\n    function _baseURI() internal pure override returns (string memory) {\n        return \"\";\n    }\n\n    //     NFT\n    function totalSupply() public view returns (uint256) {\n        return _totalSupply;\n    }\n\n    //    NFT(  NFT),  \n    function allTokenIds() public view returns (uint256[] memory) {\n        return _allTokenIds;\n    }\n}",
  "sourcePath": "/Users/sangah/study/250521_monthTest8/nft-ui/contracts/DinoNFT.sol",
  "compiler": {
    "name": "solc",
    "version": "0.8.20+commit.a1b79de6.Emscripten.clang"
  },
  "schemaVersion": "3.4.16",
  "updatedAt": "2025-05-22T08:26:40.659Z",
  "devdoc": {
    "errors": {
      "ERC721IncorrectOwner(address,uint256,address)": [
        {
          "details": "Indicates an error related to the ownership over a particular token. Used in transfers.",
          "params": {
            "owner": "Address of the current owner of a token.",
            "sender": "Address whose tokens are being transferred.",
            "tokenId": "Identifier number of a token."
          }
        }
      ],
      "ERC721InsufficientApproval(address,uint256)": [
        {
          "details": "Indicates a failure with the `operator`s approval. Used in transfers.",
          "params": {
            "operator": "Address that may be allowed to operate on tokens without being their owner.",
            "tokenId": "Identifier number of a token."
          }
        }
      ],
      "ERC721InvalidApprover(address)": [
        {
          "details": "Indicates a failure with the `approver` of a token to be approved. Used in approvals.",
          "params": {
            "approver": "Address initiating an approval operation."
          }
        }
      ],
      "ERC721InvalidOperator(address)": [
        {
          "details": "Indicates a failure with the `operator` to be approved. Used in approvals.",
          "params": {
            "operator": "Address that may be allowed to operate on tokens without being their owner."
          }
        }
      ],
      "ERC721InvalidOwner(address)": [
        {
          "details": "Indicates that an address can't be an owner. For example, `address(0)` is a forbidden owner in ERC-20. Used in balance queries.",
          "params": {
            "owner": "Address of the current owner of a token."
          }
        }
      ],
      "ERC721InvalidReceiver(address)": [
        {
          "details": "Indicates a failure with the token `receiver`. Used in transfers.",
          "params": {
            "receiver": "Address to which tokens are being transferred."
          }
        }
      ],
      "ERC721InvalidSender(address)": [
        {
          "details": "Indicates a failure with the token `sender`. Used in transfers.",
          "params": {
            "sender": "Address whose tokens are being transferred."
          }
        }
      ],
      "ERC721NonexistentToken(uint256)": [
        {
          "details": "Indicates a `tokenId` whose `owner` is the zero address.",
          "params": {
            "tokenId": "Identifier number of a token."
          }
        }
      ]
    },
    "events": {
      "Approval(address,address,uint256)": {
        "details": "Emitted when `owner` enables `approved` to manage the `tokenId` token."
      },
      "ApprovalForAll(address,address,bool)": {
        "details": "Emitted when `owner` enables or disables (`approved`) `operator` to manage all of its assets."
      },
      "Transfer(address,address,uint256)": {
        "details": "Emitted when `tokenId` token is transferred from `from` to `to`."
      }
    },
    "kind": "dev",
    "methods": {
      "approve(address,uint256)": {
        "details": "See {IERC721-approve}."
      },
      "balanceOf(address)": {
        "details": "See {IERC721-balanceOf}."
      },
      "getApproved(uint256)": {
        "details": "See {IERC721-getApproved}."
      },
      "isApprovedForAll(address,address)": {
        "details": "See {IERC721-isApprovedForAll}."
      },
      "name()": {
        "details": "See {IERC721Metadata-name}."
      },
      "ownerOf(uint256)": {
        "details": "See {IERC721-ownerOf}."
      },
      "safeTransferFrom(address,address,uint256)": {
        "details": "See {IERC721-safeTransferFrom}."
      },
      "safeTransferFrom(address,address,uint256,bytes)": {
        "details": "See {IERC721-safeTransferFrom}."
      },
      "setApprovalForAll(address,bool)": {
        "details": "See {IERC721-setApprovalForAll}."
      },
      "supportsInterface(bytes4)": {
        "details": "See {IERC165-supportsInterface}."
      },
      "symbol()": {
        "details": "See {IERC721Metadata-symbol}."
      },
      "tokenURI(uint256)": {
        "details": "See {IERC721Metadata-tokenURI}."
      },
      "transferFrom(address,address,uint256)": {
        "details": "See {IERC721-transferFrom}."
      }
    },
    "version": 1
  },
  "userdoc": {
    "kind": "user",
    "methods": {},
    "version": 1
  }
}